:100000000C942A000C9447000C9447000C94470071
:100010000C9447000C9447000C9447000C94D10BAF
:100020000C94FE0B0C94A40B0C9447000C9447000A
:100030000C9447000C9447000C9447000C94470024
:100040000C9447000C9447000C9447000C94470014
:100050000C94470011241FBECFE5D8E0DEBFCDBF12
:1000600011E0A0E6B0E0E0E1F5E302C005900D92FA
:10007000AE3EB107D9F712E0AEEEB1E001C01D927D
:10008000AF30B107E1F70E948E140C94861A0C94DD
:100090000000EF92FF920F931F937B018C0120E0F1
:1000A00030E040E05FE40E94F50388238CF0C80153
:1000B000B70120E030E040E05FE40E94C1010E940F
:1000C00055049B01AC01205030404040504806C0D0
:1000D000C801B7010E9455049B01AC01B901CA01D6
:1000E0001F910F91FF90EF900895A0E0B0E0EBE733
:1000F000F0E00C940A1ADC012B01FA019C91923079
:1001000008F439C1EB018881823008F433C194309E
:1001100069F4843009F02FC111969C91119789815F
:10012000981709F428C1A0EEB0E025C1843009F485
:1001300021C18230A9F4923009F01DC19A01AD01AC
:1001400088E0EA010990AE01E90109929E0181501F
:10015000C1F7E201898111969C918923818308C1AD
:10016000923009F407C112962D903C901397EB0141
:100170008A819B811496AD90BD90CD90DC901797AD
:10018000EC80FD800E811F819101281B390BB90184
:1001900037FF04C066277727621B730B6032710537
:1001A0000CF061C0121613066CF537014801062EDB
:1001B00004C096948794779467940A94D2F721E0C8
:1001C00030E040E050E004C0220F331F441F551FB1
:1001D0006A95D2F721503040404050402E213F21B7
:1001E00040235123211531054105510521F021E01E
:1001F00030E040E050E079018A01E628F72808293C
:1002000019293CC0232BD1F1260E371E350146019A
:10021000062E04C096948794779467940A94D2F734
:1002200021E030E040E050E004C0220F331F441FC3
:10023000551F6A95D2F721503040404050402A2146
:100240003B214C215D21211531054105510521F04E
:1002500021E030E040E050E059016A01A628B728CB
:10026000C828D9280BC0821593052CF01C01AA249C
:10027000BB24650103C0EE24FF24870111969C91E5
:10028000D20111968C91981709F445C0992339F041
:10029000A80197012A193B094C095D0906C0A6016E
:1002A00095012E193F09400B510B57FD08C01182D3
:1002B0003382228224833583468357831DC081E0A5
:1002C00081833382228288279927DC01821B930B4A
:1002D000A40BB50B84839583A683B7830DC0220F2F
:1002E000331F441F551F24833583468357838281E0
:1002F000938101979383828324813581468157813D
:10030000DA01C9010197A109B1098F5F9F4FAF4F72
:10031000BF4328F30BC0918333822282EA0CFB1C7B
:100320000C1D1D1DE482F5820683178383E0808304
:10033000248135814681578157FF1AC0C901AA27F8
:1003400097FDA095BA2F81709070A070B0705695EF
:10035000479537952795822B932BA42BB52B848318
:100360009583A683B7838281938101969383828349
:10037000DF0101C0D201CD01CDB7DEB7E2E10C94BF
:10038000261AA0E2B0E0E7ECF1E00C94161A6983BB
:100390007A838B839C832D833E834F835887E9E048
:1003A000EE2EF12CEC0EFD1ECE010196B7010E943F
:1003B00046068E010F5E1F4FCE010596B8010E94C2
:1003C00046068A8991E089278A8BC701B801AE0168
:1003D000475E5F4F0E9475000E947105A096E6E09F
:1003E0000C94321AA0E2B0E0E8EFF1E00C94161A97
:1003F00069837A838B839C832D833E834F835887C5
:10040000F9E0EF2EF12CEC0EFD1ECE010196B701A6
:100410000E9446068E010F5E1F4FCE010596B80161
:100420000E944606C701B801AE01475E5F4F0E94B9
:1004300075000E947105A096E6E00C94321AA0E2C5
:10044000B0E0E5E2F2E00C940A1A69837A838B83C8
:100450009C832D833E834F835887CE010196BE0136
:10046000675F7F4F0E944606CE010596BE016F5E14
:100470007F4F0E9446069985923088F089898230A4
:10048000C8F0943019F4823051F404C0843029F457
:10049000923081F480EE90E0C6C0923049F420E0C2
:1004A0009A858A89981321E02A87CE010996BBC0D4
:1004B000823049F420E09A858A89981321E02A8BBA
:1004C000CE014196B0C02D843E844F8458886D88FB
:1004D0007E888F88988CEE24FF248701AA24BB2471
:1004E000650140E050E060E070E0E0E0F0E0C10174
:1004F00081709070892BE9F0E60CF71C081D191D1E
:100500009A01AB012A0D3B1D4C1D5D1D80E090E062
:10051000A0E0B0E0E614F7040805190520F481E036
:1005200090E0A0E0B0E0BA01A901480F591F6A1F8E
:100530007B1FAA0CBB1CCC1CDD1C97FE08C081E0F5
:1005400090E0A0E0B0E0A82AB92ACA2ADB2A3196B6
:10055000E032F10549F0660C771C881C991C569412
:10056000479437942794C3CFFA85EA892B893C892D
:100570008B859C85280F391F2E5F3F4F17C0CA01FE
:1005800081709070892B61F016950795F794E79428
:1005900080E090E0A0E0B0E8E82AF92A0A2B1B2BC3
:1005A00076956795579547952F5F3F4F77FDE7CF36
:1005B0000CC0440F551F661F771F17FD4160EE0CDE
:1005C000FF1C001F111F21503040403090E05907A0
:1005D00090E0690790E4790760F32B8F3C8FDB0193
:1005E000CA018F779070A070B07080349105A1051A
:1005F000B10561F447FD0AC0E114F10401051105DC
:1006000029F0405C5F4F6F4F7F4F40781A8EFE1786
:1006100011F081E08A8F4D8F5E8F6F8F78A383E01A
:10062000898FCE0149960E947105A096E2E10C9453
:10063000261AA8E1B0E0EFE1F3E00C94121A698306
:100640007A838B839C832D833E834F835887B9E0C5
:10065000EB2EF12CEC0EFD1ECE010196B7010E948F
:1006600046068E010F5E1F4FCE010596B8010E940F
:1006700046062985223008F47EC03989323010F4CC
:10068000B8017CC08A859A8989278A87243011F02D
:10069000223031F4231709F06EC060EE70E06EC0B6
:1006A000343039F41D861E861F86188A1C861B86E8
:1006B00004C0323021F484E08987B7015FC02B8504
:1006C0003C858B899C89281B390B3C872B87ED84C3
:1006D000FE840F851889AD88BE88CF88D88CEA142F
:1006E000FB040C051D0540F4EE0CFF1C001F111F40
:1006F000215030403C872B8720E030E040E050E044
:1007000080E090E0A0E0B0E460E070E0EA14FB0478
:100710000C051D0540F0282B392B4A2B5B2BEA18C2
:10072000FB080C091D09B695A79597958795EE0CC2
:10073000FF1C001F111F6F5F7F4F6F31710531F775
:10074000DA01C9018F779070A070B0708034910584
:10075000A105B10561F427FD0AC0E114F10401050A
:10076000110529F0205C3F4F4F4F5F4F20782D87B8
:100770003E874F87588BBE01675F7F4FCB010E943A
:1007800071056896EAE00C942E1AA8E1B0E0EBEC53
:10079000F3E00C94161A69837A838B839C832D83F0
:1007A0003E834F83588789E0E82EF12CEC0EFD1E26
:1007B000CE010196B7010E9446068E010F5E1F4FC3
:1007C000CE010596B8010E9446068985823040F028
:1007D0008989823028F0C701B8010E94BE0601C095
:1007E0008FEF6896E6E00C94321AA8E1B0E0EBEFE8
:1007F000F3E00C94161A69837A838B839C832D8390
:100800003E834F83588789E0E82EF12CEC0EFD1EC5
:10081000CE010196B7010E9446068E010F5E1F4F62
:10082000CE010596B8010E9446068985823040F0C7
:100830008989823028F0C701B8010E94BE0601C034
:100840008FEF6896E6E00C94321AA8E1B0E0EBE294
:10085000F4E00C94161A69837A838B839C832D832E
:100860003E834F83588789E0E82EF12CEC0EFD1E65
:10087000CE010196B7010E9446068E010F5E1F4F02
:10088000CE010596B8010E9446068985823040F067
:100890008989823028F0C701B8010E94BE0601C0D4
:1008A00081E06896E6E00C94321AACE0B0E0EBE54B
:1008B000F4E00C941A1A69837A838B839C83CE01AB
:1008C0000196BE016B5F7F4F0E9446068D8182308C
:1008D00061F1823050F1843021F48E81882351F10E
:1008E0002EC02F81388537FD20C06E812F31310514
:1008F0001CF06623F9F023C08EE190E0821B930B7D
:1009000029853A854B855C8504C056954795379572
:1009100027958A95D2F76623B1F05095409530958A
:1009200021953F4F4F4F5F4F0EC020E030E040E039
:1009300050E009C02FEF3FEF4FEF5FE704C020E02A
:1009400030E040E050E8B901CA012C96E2E00C9496
:10095000361AA8E0B0E0EFEAF4E00C94121A7B013A
:100960008C01611571058105910519F482E0898377
:1009700060C083E089838EE1C82ED12CDC82CB82DB
:10098000ED82FE820F831887C801B7010E942205FD
:10099000FC013197F7FF3BC0222733272E1B3F0B6B
:1009A00057016801022E04C0D694C794B794A79447
:1009B0000A94D2F740E050E060E070E081E090E01F
:1009C000A0E0B0E004C0880F991FAA1FBB1F2A95A2
:1009D000D2F70197A109B1098E219F21A023B1234C
:1009E0000097A105B10521F041E050E060E070E022
:1009F0004A295B296C297D294D835E836F83788723
:100A00008EE190E08E1B9F0B9C838B8312C03097EE
:100A100081F00E2E04C0EE0CFF1C001F111F0A9463
:100A2000D2F7ED82FE820F831887CE1ADF0ADC82AE
:100A3000CB821A82CE0101960E9471052896EAE0C7
:100A40000C942E1AEF92FF920F931F937B018C014F
:100A500080E0E81680E0F80681E0080780E01807EB
:100A600088F48FEFE816F1040105110531F028F044
:100A700088E090E0A0E0B0E017C080E090E0A0E067
:100A8000B0E012C080E0E81680E0F80680E00807D9
:100A900081E0180728F088E190E0A0E0B0E004C011
:100AA00080E190E0A0E0B0E020E230E040E050E003
:100AB000281B390B4A0B5B0B04C016950795F7945E
:100AC000E7948A95D2F7F701E851FF4F8081281B00
:100AD000310941095109C9011F910F91FF90EF9010
:100AE0000895DF92EF92FF920F931F93FC01E48031
:100AF000F58006811781D1808081823048F480E0C2
:100B000090E0A0E1B0E0E82AF92A0A2B1B2BA5C04F
:100B1000843009F49FC0823021F4EE24FF24870141
:100B200005C0E114F1040105110519F4E0E0F0E05D
:100B300096C0628173819FEF623879070CF05BC0C9
:100B400022E83FEF261B370B2A3131052CF020E03D
:100B500030E040E050E02AC0B801A701022E04C0F6
:100B600076956795579547950A94D2F781E090E07E
:100B7000A0E0B0E004C0880F991FAA1FBB1F2A95F0
:100B8000D2F70197A109B1098E219F21A023B1239A
:100B90000097A105B10521F081E090E0A0E0B0E070
:100BA0009A01AB01282B392B4A2B5B2BDA01C901A7
:100BB0008F779070A070B07080349105A105B10559
:100BC00039F427FF09C0205C3F4F4F4F5F4F04C0EF
:100BD000215C3F4F4F4F5F4FE0E0F0E02030A0E05E
:100BE0003A07A0E04A07A0E45A0710F0E1E0F0E07D
:100BF00079018A0127C06038710564F5FB01E1586D
:100C0000FF4FD801C7018F779070A070B07080340B
:100C10009105A105B10539F4E7FE0DC080E490E02F
:100C2000A0E0B0E004C08FE390E0A0E0B0E0E80E08
:100C3000F91E0A1F1B1F17FF05C016950795F7948D
:100C4000E794319687E016950795F794E7948A958F
:100C5000D1F705C0EE24FF248701EFEFF0E06E2FFF
:100C6000679566276795902F9F77D794DD24D79453
:100C70008E2F8695492F462B582F5D29B701CA0123
:100C80001F910F91FF90EF90DF900895FC01DB0121
:100C9000408151812281622F6F7770E0221F2227CD
:100CA000221F9381892F880F822B282F30E0991FD4
:100CB0009927991F11969C93119721153105A9F534
:100CC000411551056105710511F482E037C082E8D4
:100CD0009FEF13969C938E9312979A01AB0167E056
:100CE000220F331F441F551F6A95D1F783E08C9361
:100CF0000DC0220F331F441F551F12968D919C91DA
:100D00001397019713969C938E931297203080E04F
:100D1000380780E0480780E4580758F314962D936D
:100D20003D934D935C93179708952F3F310579F4C8
:100D3000411551056105710519F484E08C930895FE
:100D400064FF03C081E08C9312C01C9210C02F5727
:100D5000304013963C932E93129783E08C9387E058
:100D6000440F551F661F771F8A95D1F7706414963C
:100D70004D935D936D937C93179708951F93DC01BA
:100D8000FB019C91923008F447C08081823008F4C6
:100D900043C0943051F411961C91843099F58181AF
:100DA000682F70E0611B71093FC0843021F09230E0
:100DB00031F48230B9F18181882389F12DC01196F7
:100DC0001C9111978230F1F081811817D9F4129695
:100DD0002D913C911397828193818217930794F010
:100DE00028173907BCF014968D919D910D90BC91F8
:100DF000A02D2481358146815781281739074A075C
:100E00005B0718F4112341F00AC082179307A40767
:100E1000B50740F4112319F061E070E005C06FEFF1
:100E20007FEF02C060E070E0CB011F910895DF9377
:100E3000CF9300D000D0CDB7DEB79C838B83EBE29D
:100E4000F0E0808182608083EAE2F0E0808180616E
:100E50008083EAE2F0E0808188608083E0E4F0E073
:100E600080818F7B8083A0E4B0E0EB81FC81818175
:100E700083708370982F9295907F8C918F7C892BB3
:100E80008C93A0E4B0E0EB81FC8182818170817061
:100E9000982F990F990F990F8C91877F892B8C939D
:100EA000A0E4B0E0EB81FC81808183708370982F97
:100EB000990F8C91897F892B8C93EB81FC818381A5
:100EC0009481CC01A0E0B0E0880F991FAA1FBB1F3E
:100ED000880F991FAA1FBB1F880F991FAA1FBB1F2E
:100EE000BC01CD010E94A9049B01AC0160E074E249
:100EF00084EF9AE40E941903DC01CB01BC01CD010F
:100F000020E030E040E85FE30E94C101DC01CB015A
:100F1000BC01CD010E944900DC01CB019A83898389
:100F2000E0E4F0E089819A81892F99278F70982FCA
:100F30009F708081807F892B8083E9E2F0E0898146
:100F400080830F900F900F900F90CF91DF910895B5
:100F5000DF93CF930F92CDB7DEB78983EBE2F0E05A
:100F6000808180728823D1F3ECE2F0E08981808374
:100F70000F90CF91DF910895DF93CF93CDB7DEB778
:100F8000EBE2F0E0808180788823D1F3ECE2F0E0BE
:100F90008081CF91DF910895DF93CF9300D00F929E
:100FA000CDB7DEB79B838A8319820EC08981282F33
:100FB00030E08A819B81FC01E20FF31F80810E9457
:100FC000A80789818F5F89838981282F30E08A81F2
:100FD0009B81FC01E20FF31F8081882339F70F907A
:100FE0000F900F90CF91DF9108950F931F93DF9390
:100FF000CF9300D00F92CDB7DEB79B838A8319823F
:101000008981282F30E08A819B818C01020F131F78
:101010000E94BC07F80180830FC089818F5F89839C
:101020008981282F30E08A819B818C01020F131F58
:101030000E94BC07F80180838981282F30E08A81D3
:101040009B81FC01E20FF31F8081833231F789819C
:10105000282F30E08A819B81FC01E20FF31F108270
:101060000F900F900F90CF91DF911F910F910895E6
:10107000DF93CF9300D000D00F92CDB7DEB7898336
:101080006A834B838A81883008F0D5C08981843097
:1010900008F0D1C08981282F30E03D832C838C81DA
:1010A0009D818130910509F443C02C813D8122301E
:1010B00031052CF48C819D81009771F0BCC02C818E
:1010C0003D812230310509F45FC08C819D818330E0
:1010D000910509F485C0AFC08B818130A1F4AAE3EA
:1010E000B0E0EAE3F0E08081482F8A81282F30E0E9
:1010F00081E090E0022E02C0880F991F0A94E2F767
:10110000842B8C9398C0AAE3B0E0EAE3F0E08081FE
:10111000482F8A81282F30E081E090E0022E02C023
:10112000880F991F0A94E2F7809584238C9383C0DB
:101130008B818130A1F4A7E3B0E0E7E3F0E08081A8
:10114000482F8A81282F30E081E090E0022E02C0F3
:10115000880F991F0A94E2F7842B8C936CC0A7E345
:10116000B0E0E7E3F0E08081482F8A81282F30E06B
:1011700081E090E0022E02C0880F991F0A94E2F7E6
:10118000809584238C9357C08B818130A1F4A4E394
:10119000B0E0E4E3F0E08081482F8A81282F30E03E
:1011A00081E090E0022E02C0880F991F0A94E2F7B6
:1011B000842B8C9340C0A4E3B0E0E4E3F0E08081B2
:1011C000482F8A81282F30E081E090E0022E02C073
:1011D000880F991F0A94E2F7809584238C932BC083
:1011E0008B818130A1F4A1E3B0E0E1E3F0E0808104
:1011F000482F8A81282F30E081E090E0022E02C043
:10120000880F991F0A94E2F7842B8C9314C0A1E3F2
:10121000B0E0E1E3F0E08081482F8A81282F30E0C0
:1012200081E090E0022E02C0880F991F0A94E2F735
:10123000809584238C930F900F900F900F900F90B8
:10124000CF91DF910895DF93CF9300D000D00F921C
:10125000CDB7DEB789836A834B838A81883008F0F3
:10126000D5C08981843008F0D1C08981282F30E031
:101270003D832C838C819D818130910509F443C08D
:101280002C813D81223031052CF48C819D81009789
:1012900071F0BCC02C813D812230310509F45FC062
:1012A0008C819D818330910509F485C0AFC08B810D
:1012B0008130A1F4ABE3B0E0EBE3F0E08081482FB4
:1012C0008A81282F30E081E090E0022E02C0880F52
:1012D000991F0A94E2F7842B8C9398C0ABE3B0E09B
:1012E000EBE3F0E08081482F8A81282F30E081E015
:1012F00090E0022E02C0880F991F0A94E2F78095B1
:1013000084238C9383C08B818130A1F4A8E3B0E067
:10131000E8E3F0E08081482F8A81282F30E081E0E7
:1013200090E0022E02C0880F991F0A94E2F7842BE6
:101330008C936CC0A8E3B0E0E8E3F0E08081482F34
:101340008A81282F30E081E090E0022E02C0880FD1
:10135000991F0A94E2F7809584238C9357C08B8160
:101360008130A1F4A5E3B0E0E5E3F0E08081482F0F
:101370008A81282F30E081E090E0022E02C0880FA1
:10138000991F0A94E2F7842B8C9340C0A5E3B0E048
:10139000E5E3F0E08081482F8A81282F30E081E06A
:1013A00090E0022E02C0880F991F0A94E2F7809500
:1013B00084238C932BC08B818130A1F4A2E3B0E015
:1013C000E2E3F0E08081482F8A81282F30E081E03D
:1013D00090E0022E02C0880F991F0A94E2F7842B36
:1013E0008C9314C0A2E3B0E0E2E3F0E08081482FE8
:1013F0008A81282F30E081E090E0022E02C0880F21
:10140000991F0A94E2F7809584238C930F900F9094
:101410000F900F900F90CF91DF910895DF93CF93AE
:1014200000D000D00F92CDB7DEB789836A838A815E
:10143000883018F48981843010F01D82AFC0898112
:10144000282F30E03C832B834B815C814130510558
:10145000D9F18B819C818230910534F42B813C81C0
:101460002115310571F099C04B815C8142305105E5
:1014700009F44DC08B819C818330910509F46AC0C9
:101480008CC0E9E3F0E08081482F50E08A81282F6A
:1014900030E081E090E002C0880F991F2A95E2F7C2
:1014A0009A01282339238A81882F90E0A90102C05C
:1014B000559547958A95E2F7CA01009719F051E0D2
:1014C0005D836CC01D826AC0E6E3F0E08081482F36
:1014D00050E08A81282F30E081E090E002C0880F40
:1014E000991F2A95E2F79A01282339238A81882FA8
:1014F00090E0A90102C0559547958A95E2F7CA0187
:10150000009719F051E05D8349C01D8247C0E3E3B5
:10151000F0E08081482F50E08A81282F30E081E080
:1015200090E002C0880F991F2A95E2F79A012823BC
:1015300039238A81882F90E0A90102C055954795EB
:101540008A95E2F7CA01009719F051E05D8326C041
:101550001D8224C0E0E3F0E08081482F50E08A81C2
:10156000282F30E081E090E002C0880F991F2A9573
:10157000E2F79A01282339238A81882F90E0A90174
:1015800002C0559547958A95E2F7CA01009719F070
:1015900051E05D8303C01D8201C01D828D810F90CB
:1015A0000F900F900F900F90CF91DF910895DF93E0
:1015B000CF9300D000D0CDB7DEB789836A8389810D
:1015C000843090F58981282F30E03C832B838B81F8
:1015D0009C8181309105D1F02B813C8122303105F5
:1015E0002CF48B819C81009761F01EC02B813C8183
:1015F0002230310581F08B819C818330910581F00F
:1016000013C0EAE3F0E08A8180830EC0E7E3F0E0F4
:101610008A81808309C0E4E3F0E08A81808304C08A
:10162000E1E3F0E08A8180830F900F900F900F909C
:10163000CF91DF910895DF93CF9300D000D0CDB745
:10164000DEB789836A838981282F30E03C832B832E
:101650008B819C8181309105D1F02B813C8122309E
:1016600031052CF48B819C81009761F01EC02B8189
:101670003C812230310581F08B819C818330910542
:1016800081F013C0EBE3F0E08A8180830EC0E8E3D1
:10169000F0E08A81808309C0E5E3F0E08A818083FD
:1016A00004C0E2E3F0E08A8180830F900F900F90F6
:1016B0000F90CF91DF910895DF93CF9300D000D0AA
:1016C000CDB7DEB789838981843010F01C8234C0A5
:1016D0008981282F30E03B832A838A819B81813056
:1016E0009105D1F02A813B81223031052CF48A8189
:1016F0009B81009761F01FC02A813B812230310518
:1017000081F08A819B818330910581F014C0E9E3E7
:10171000F0E090819C8310C0E6E3F0E020812C8310
:101720000BC0E3E3F0E030813C8306C0E0E3F0E08F
:1017300080818C8301C01C828C810F900F900F9050
:101740000F90CF91DF9108951F920F920FB60F92D5
:1017500011242F933F934F935F936F937F938F93B6
:101760009F93AF93BF93EF93FF93DF93CF93CDB747
:10177000DEB7E091EE01F091EF010995CF91DF9195
:10178000FF91EF91BF91AF919F918F917F916F9159
:101790005F914F913F912F910F900FBE0F901F902F
:1017A00018951F920F920FB60F9211242F933F930B
:1017B0004F935F936F937F938F939F93AF93BF9359
:1017C000EF93FF93DF93CF93CDB7DEB7E091EE01B8
:1017D000F091EF010995CF91DF91FF91EF91BF91CA
:1017E000AF919F918F917F916F915F914F913F91B9
:1017F0002F910F900FBE0F901F9018951F920F9270
:101800000FB60F921124DF93CF93CDB7DEB7CF91F0
:10181000DF910F900FBE0F901F901895EF92FF92DF
:101820000F931F93DF93CF93CDB7DEB728970FB6F3
:10183000F894DEBF0FBECDBF9E838D83ED81FE8108
:101840008081282F30E038872F838F8198858130E1
:10185000910509F445C02F813885223031052CF4DB
:101860008F819885009771F05FC12F813885223074
:10187000310509F471C08F8198858330910509F491
:10188000CAC052C1EFE4F0E080818F738083EFE43F
:10189000F0E080818F7C8083EFE4F0E080818860DD
:1018A0008083EFE4F0E0808184608083EFE4F0E007
:1018B00080818E7F8083EFE4F0E080818D7F808364
:1018C000EEE4F0E08081877F8083EEE4F0E08081C9
:1018D0008F7E8083E9E5F0E080818460808324C18D
:1018E000EFE4F0E080818F738083EFE4F0E08081AB
:1018F0008F7C8083EFE4F0E0808188608083EFE478
:10190000F0E0808184608083EFE4F0E080818E7F6E
:101910008083EFE4F0E080818D7F8083EEE4F0E06F
:10192000808188608083EEE4F0E080818F7E808318
:10193000E9E5F0E0808180618083E9E5F0E0808185
:1019400088608083AAE4B0E0ED81FE818481958186
:1019500011969C938E93E8C0E1E3F0E08081806172
:101960008083EFE4F0E080818F7380688083EFE410
:10197000F0E080818F7C80628083EFE4F0E0808102
:10198000877F8083EFE4F0E080818B7F8083EFE4CA
:10199000F0E0808181608083EFE4F0E0808182600C
:1019A0008083EEE4F0E0808188608083EEE4F0E004
:1019B000808180618083AAE4B0E0ED81FE81848132
:1019C000958111969C938E93ED81FE818781E82EFF
:1019D000FF2400E010E0EAE4F0E0808191819C01C6
:1019E00040E050E0C801B7010E94C919DC01CB01F9
:1019F00024E630E040E050E0BC01CD010E94E8194F
:101A0000DA01C9019A838983E8E4F0E089819A8147
:101A10009183808389C0E1E3F0E0808180618083ED
:101A2000E1E3F0E0808180628083EFE4F0E0808198
:101A30008F7380688083EFE4F0E080818F7C806228
:101A40008083EFE4F0E08081877F8083EFE4F0E043
:101A500080818B7F8083EFE4F0E080818E7F8083C4
:101A6000EFE4F0E0808182608083EEE4F0E080814A
:101A700088608083EEE4F0E0808180618083A6E46A
:101A8000B0E0ED81FE818481958111969C938E93C7
:101A9000ED81FE818681E82EFF2400E010E0E6E47F
:101AA000F0E0808191819C0140E050E0C801B701E5
:101AB0000E94C919DC01CB0124E630E040E050E08F
:101AC000BC01CD010E94E819DA01C9019C838B8316
:101AD000ED81FE818781E82EFF2400E010E0E6E43E
:101AE000F0E0808191819C0140E050E0C801B701A5
:101AF0000E94C919DC01CB0124E630E040E050E04F
:101B0000BC01CD010E94E819DA01C9019A838983D9
:101B1000EAE4F0E08B819C8191838083E8E4F0E04B
:101B200089819A8191838083AEE4B0E0ED81FE816A
:101B300081818770982F97708C91887F892B8C93E7
:101B4000ACE4B0E0ED81FE818281938111969C939B
:101B50008E9328960FB6F894DEBF0FBECDBFCF91FF
:101B6000DF911F910F91FF90EF900895DF93CF9336
:101B7000CDB7DEB7EEE4F0E08081887F8083CF913F
:101B8000DF910895DF93CF9300D0CDB7DEB79A836E
:101B9000898389819A819093EF018093EE010F9060
:101BA0000F90CF91DF910895DF93CF93CDB7DEB73C
:101BB000E9970FB6F894DEBF0FBECDBF89AF83E0C3
:101BC00066E040E00E94230980E090E0A0E8BFE3E7
:101BD0008DAB9EABAFABB8AF6DA97EA98FA998AD09
:101BE00020E030E04AEF54E40E941F02DC01CB0108
:101BF00089AB9AABABABBCAB69A97AA98BA99CA901
:101C000020E030E040E85FE30E94250488232CF4C4
:101C100081E090E098AB8FA73FC069A97AA98BA912
:101C20009CA920E03FEF4FE757E40E94C503181638
:101C30004CF56DA97EA98FA998AD20E030E040E277
:101C400051E40E941F02DC01CB01BC01CD010E94C6
:101C50004900DC01CB0198AB8FA70FC088EC90E066
:101C60009EA78DA78DA59EA50197F1F79EA78DA78D
:101C70008FA598A9019798AB8FA78FA598A90097D2
:101C800069F714C069A97AA98BA99CA90E94490087
:101C9000DC01CB0198AB8FA78FA598A99CA78BA738
:101CA0008BA59CA50197F1F79CA78BA783E067E024
:101CB00041E00E94230980E090E0A0E8BFE38FA309
:101CC00098A7A9A7BAA76FA178A589A59AA520E08A
:101CD00030E04AEF54E40E941F02DC01CB018BA3E9
:101CE0009CA3ADA3BEA36BA17CA18DA19EA120E06E
:101CF00030E040E85FE30E94250488232CF481E073
:101D000090E09AA389A33FC06BA17CA18DA19EA165
:101D100020E03FEF4FE757E40E94C50318164CF54B
:101D20006FA178A589A59AA520E030E040E251E4B2
:101D30000E941F02DC01CB01BC01CD010E944900C1
:101D4000DC01CB019AA389A30FC088EC90E098A393
:101D50008F8F8F8D98A10197F1F798A38F8F89A10D
:101D60009AA101979AA389A389A19AA1009769F7DB
:101D700014C06BA17CA18DA19EA10E944900DC0131
:101D8000CB019AA389A389A19AA19E8F8D8F8D8D56
:101D90009E8D0197F1F79E8F8D8F82E069AD0E9435
:101DA0001B0B80E090E0A0E8BFE3898F9A8FAB8F98
:101DB000BC8F698D7A8D8B8D9C8D20E030E04AEF51
:101DC00054E40E941F02DC01CB018D8B9E8BAF8BF4
:101DD000B88F6D897E898F89988D20E030E040E84A
:101DE0005FE30E94250488232CF481E090E09C8B23
:101DF0008B8B3FC06D897E898F89988D20E03FEF66
:101E00004FE757E40E94C50318164CF5698D7A8D8B
:101E10008B8D9C8D20E030E040E251E40E941F0257
:101E2000DC01CB01BC01CD010E944900DC01CB01EA
:101E30009C8B8B8B0FC088EC90E09A8B898B898967
:101E40009A890197F1F79A8B898B8B899C890197E5
:101E50009C8B8B8B8B899C89009769F714C06D894B
:101E60007E898F89988D0E944900DC01CB019C8B73
:101E70008B8B8B899C89988B8F878F85988901970D
:101E8000F1F7988B8F8783E067E040E00E94230999
:101E900080E090E0A0E8BFE38B879C87AD87BE879A
:101EA0006B857C858D859E8520E030E04AEF54E48B
:101EB0000E941F02DC01CB018F839887A987BA8714
:101EC0006F81788589859A8520E030E040E85FE37E
:101ED0000E94250488232CF481E090E09E838D836A
:101EE0003FC06F81788589859A8520E03FEF4FE775
:101EF00057E40E94C50318164CF56B857C858D85CB
:101F00009E8520E030E040E251E40E941F02DC01A7
:101F1000CB01BC01CD010E944900DC01CB019E83B5
:101F20008D830FC088EC90E09C838B838B819C8198
:101F30000197F1F79C838B838D819E8101979E830E
:101F40008D838D819E81009769F714C06F8178859C
:101F500089859A850E944900DC01CB019E838D838F
:101F60008D819E819A83898389819A810197F1F776
:101F70009A838983E9960FB6F894DEBF0FBECDBF72
:101F8000CF91DF910895DF93CF93CDB7DEB7E99777
:101F90000FB6F894DEBF0FBECDBF89AF83E066E019
:101FA00041E00E94230980E090E0A0E8BFE38DAB10
:101FB0009EABAFABB8AF6DA97EA98FA998AD20E05D
:101FC00030E04AEF54E40E941F02DC01CB0189ABF0
:101FD0009AABABABBCAB69A97AA98BA99CA920E051
:101FE00030E040E85FE30E94250488232CF481E080
:101FF00090E098AB8FA73FC069A97AA98BA99CA94B
:1020000020E03FEF4FE757E40E94C50318164CF558
:102010006DA97EA98FA998AD20E030E040E251E49F
:102020000E941F02DC01CB01BC01CD010E944900CE
:10203000DC01CB0198AB8FA70FC088EC90E09EA786
:102040008DA78DA59EA50197F1F79EA78DA78FA5BA
:1020500098A9019798AB8FA78FA598A9009769F7C2
:1020600014C069A97AA98BA99CA90E944900DC0126
:10207000CB0198AB8FA78FA598A99CA78BA78BA501
:102080009CA50197F1F79CA78BA783E067E041E04F
:102090000E94230980E090E0A0E8BFE38FA398A707
:1020A000A9A7BAA76FA178A589A59AA520E030E0D5
:1020B0004AEF54E40E941F02DC01CB018BA39CA3D6
:1020C000ADA3BEA36BA17CA18DA19EA120E030E0B9
:1020D00040E85FE30E94250488232CF481E090E02F
:1020E0009AA389A33FC06BA17CA18DA19EA120E0F2
:1020F0003FEF4FE757E40E94C50318164CF56FA158
:1021000078A589A59AA520E030E040E251E40E943C
:102110001F02DC01CB01BC01CD010E944900DC01A2
:10212000CB019AA389A30FC088EC90E098A38F8F6E
:102130008F8D98A10197F1F798A38F8F89A19AA10C
:1021400001979AA389A389A19AA1009769F714C05E
:102150006BA17CA18DA19EA10E944900DC01CB0155
:102160009AA389A389A19AA19E8F8D8F8D8D9E8D13
:102170000197F1F79E8F8D8F82E069AD0E941B0B56
:1021800080E090E0A0E8BFE3898F9A8FAB8FBC8F8F
:10219000698D7A8D8B8D9C8D20E030E04AEF54E480
:1021A0000E941F02DC01CB018D8B9E8BAF8BB88F01
:1021B0006D897E898F89988D20E030E040E85FE36B
:1021C0000E94250488232CF481E090E09C8B8B8B6B
:1021D0003FC06D897E898F89988D20E03FEF4FE762
:1021E00057E40E94C50318164CF5698D7A8D8B8DC6
:1021F0009C8D20E030E040E251E40E941F02DC01AF
:10220000CB01BC01CD010E944900DC01CB019C8BBC
:102210008B8B0FC088EC90E09A8B898B89899A8987
:102220000197F1F79A8B898B8B899C8901979C8BFD
:102230008B8B8B899C89009769F714C06D897E8987
:102240008F89988D0E944900DC01CB019C8B8B8B80
:102250008B899C89988B8F878F8598890197F1F757
:10226000988B8F8783E067E040E00E94230980E03D
:1022700090E0A0E8BFE38B879C87AD87BE876B8526
:102280007C858D859E8520E030E04AEF54E40E94F5
:102290001F02DC01CB018F839887A987BA876F81E2
:1022A000788589859A8520E030E040E85FE30E94E8
:1022B000250488232CF481E090E09E838D833FC029
:1022C0006F81788589859A8520E03FEF4FE757E455
:1022D0000E94C50318164CF56B857C858D859E85FF
:1022E00020E030E040E251E40E941F02DC01CB011B
:1022F000BC01CD010E944900DC01CB019E838D838E
:102300000FC088EC90E09C838B838B819C8101972C
:10231000F1F79C838B838D819E8101979E838D83B2
:102320008D819E81009769F714C06F8178858985BA
:102330009A850E944900DC01CB019E838D838D81AB
:102340009E819A83898389819A810197F1F79A8383
:102350008983E9960FB6F894DEBF0FBECDBFCF914B
:10236000DF910895DF93CF93CDB7DEB72E970FB6E9
:10237000F894DEBF0FBECDBF83E066E041E00E946F
:10238000380883E067E041E00E94380880E090E090
:10239000A0EAB1E48B879C87AD87BE876B857C857F
:1023A0008D859E8520E030E04AEF54E40E941F02B4
:1023B000DC01CB018F839887A987BA876F817885E5
:1023C00089859A8520E030E040E85FE30E9425049B
:1023D00088232CF481E090E09E838D833FC06F8141
:1023E000788589859A8520E03FEF4FE757E40E9482
:1023F000C50318164CF56B857C858D859E8520E080
:1024000030E040E251E40E941F02DC01CB01BC013C
:10241000CD010E944900DC01CB019E838D830FC05A
:1024200088EC90E09C838B838B819C810197F1F7F2
:102430009C838B838D819E8101979E838D838D816B
:102440009E81009769F714C06F81788589859A8588
:102450000E944900DC01CB019E838D838D819E818A
:102460009A83898389819A810197F1F79A83898375
:1024700082E06FEF0E94D70A88E30E94D40D8CE0BF
:102480000E94D40D81E00E94D40D2E960FB6F894D0
:10249000DEBF0FBECDBFCF91DF910895DF93CF9305
:1024A00000D000D0CDB7DEB79C838B831A8219820F
:1024B0000FC029813A818B819C81FC01E20FF31FBF
:1024C00080810E94C30F89819A8101969A838983B2
:1024D00029813A818B819C81FC01E20FF31F80816D
:1024E000882339F70F900F900F900F90CF91DF91C5
:1024F0000895DF93CF9300D000D0CDB7DEB78983A6
:102500006A838981282F30E03C832B838B819C81D7
:1025100081309105D1F02B813C81223031052CF4A2
:102520008B819C81009761F01FC02B813C81223000
:10253000310581F08B819C818330910581F014C03D
:102540008A8180580E94D40D12C08A8180540E94D2
:10255000D40D0DC08A8180570E94D40D08C08A8195
:1025600080530E94D40D03C080E80E94D40D0F90C8
:102570000F900F900F90CF91DF910895DF93CF933D
:1025800000D000D0CDB7DEB79A8389836B834C83AC
:102590008B816C810E94791289819A810E944E12EE
:1025A0000F900F900F900F90CF91DF910895DF93D0
:1025B000CF93CDB7DEB781E00E94D40DCF91DF91EC
:1025C0000895DF93CF93CDB7DEB764970FB6F89435
:1025D000DEBF0FBECDBF698B7A8B8B8B9C8B8989BD
:1025E0009A899E012F5F3F4FB9014AE050E00E9457
:1025F000411ACE0101960E944E1264960FB6F894CD
:10260000DEBF0FBECDBFCF91DF910895DF93CF9393
:10261000CDB7DEB760970FB6F894DEBF0FBECDBF63
:1026200080E060E040E00E94380880E061E040E047
:102630000E94380880E062E040E00E94380880E0B4
:1026400063E040E00E94380880E064E040E00E94DF
:10265000380880E065E040E00E94380880E066E0ED
:1026600040E00E94380880E067E040E00E943808BF
:10267000188AABC080E0688941E00E94380880E099
:10268000688940E00E9423091F8622C08F85982F09
:102690009C5F80E0692F0E940E0A8823B1F488892C
:1026A000882F90E0880F991F880F991F982F8F858A
:1026B000890F8F5F0E94EA1360960FB6F894DEBF11
:1026C0000FBECDBFCF91DF9108958F858F5F8F872C
:1026D0008F858430D8F280E0688940E00E94380815
:1026E00080E090E0A0E2B1E48B879C87AD87BE8755
:1026F0006B857C858D859E8520E030E04AEF54E433
:102700000E941F02DC01CB018F839887A987BA87BB
:102710006F81788589859A8520E030E040E85FE325
:102720000E94250488232CF481E090E09E838D8311
:102730003FC06F81788589859A8520E03FEF4FE71C
:1027400057E40E94C50318164CF56B857C858D8572
:102750009E8520E030E040E251E40E941F02DC014F
:10276000CB01BC01CD010E944900DC01CB019E835D
:102770008D830FC088EC90E09C838B838B819C8140
:102780000197F1F79C838B838D819E8101979E83B6
:102790008D838D819E81009769F714C06F81788544
:1027A00089859A850E944900DC01CB019E838D8337
:1027B0008D819E819A83898389819A810197F1F71E
:1027C0009A83898388898F5F888B8889843008F40D
:1027D00051CF4ECFDF93CF9300D000D0CDB7DEB72F
:1027E00089838981282F30E03C832B838B819C81D6
:1027F0008830910509F46FC02B813C812930310567
:1028000054F58B819C818430910509F458C02B814B
:102810003C812530310594F48B819C818230910577
:1028200009F447C02B813C81233031050CF044C0B2
:102830008B819C8181309105C9F166C02B813C81DF
:102840002630310509F441C08B819C818730910588
:102850000CF03EC037C02B813C812C30310509F48F
:1028600046C08B819C818D3091055CF42B813C812D
:102870002A303105B1F18B819C818B309105A4F513
:102880002DC02B813C812E303105B1F18B819C8193
:102890008E3091057CF12B813C812F30310571F117
:1028A0008B819C818031910561F12EC097E09A83E4
:1028B0002DC028E02A832AC039E03A8327C08FE25E
:1028C0008A8324C094E09A8321C025E02A831EC015
:1028D00036E03A831BC088E78A8318C091E09A8368
:1028E00015C022E02A8312C033E03A830FC08DE284
:1028F0008A830CC01A820AC01A8208C09DE39A8398
:1029000005C02BE22A8302C039813A838A810F9065
:102910000F900F900F90CF91DF910895DF93CF9399
:10292000CDB7DEB761970FB6F894DEBF0FBECDBF4F
:10293000EFE5F0E080818068808388EE91E00E947E
:1029400017070E94B21180E060E00E94791281E0D6
:102950008093FC0185E08093FD018CEC9BE59093D6
:102960000102809300021092FF011092FE0110926A
:10297000F1018091F101282F30E0398B288B888973
:1029800099898230910509F4D5C028893989233085
:10299000310554F488899989009799F028893989F3
:1029A0002130310511F1E5CF88899989843091056D
:1029B00009F4ABC028893989243031050CF4CEC024
:1029C000D8CF87EF91E02AE032E0B9010E94C81524
:1029D00087EF91E00E9405188AE092E00E940518B6
:1029E0000E94BC078093F101C4CF0E94D71280E6F9
:1029F00090E060E040E00E94BE128EE690E061E070
:102A000040E00E94BE120E9406138F878F858B3292
:102A100019F08F858D32B9F78F850E94A80780E065
:102A200090E0A8ECB3E48B879C87AD87BE876B856D
:102A30007C858D859E8520E030E04AEF54E40E943D
:102A40001F02DC01CB018F839887A987BA876F812A
:102A5000788589859A8520E030E040E85FE30E9430
:102A6000250488232CF481E090E09E838D833FC071
:102A70006F81788589859A8520E03FEF4FE757E49D
:102A80000E94C50318164CF56B857C858D859E8547
:102A900020E030E040E251E40E941F02DC01CB0163
:102AA000BC01CD010E944900DC01CB019E838D83D6
:102AB0000FC088EC90E09C838B838B819C81019775
:102AC000F1F79C838B838D819E8101979E838D83FB
:102AD0008D819E81009769F714C06F817885898503
:102AE0009A850E944900DC01CB019E838D838D81F4
:102AF0009E819A83898389819A810197F1F79A83CC
:102B0000898384E08093F10134CF8F858B3239F44F
:102B10000E9452180E94BC078093F1012ACF8F8532
:102B20008D3209F026CF0E9452180E94BC07809374
:102B3000F1011FCF0E94D7128EE790E060E040E0E5
:102B40000E94BE128BE799E10E94C20D8CEF91E0CA
:102B50000E940E0C85E08093F1010BCF0E94D712EA
:102B60008DE890E060E040E00E94BE128CEA99E1BE
:102B70000E94C20D88E997EB9093010280930002B6
:102B80008CEF91E00E940E0C86E08093F101F1CE73
:102B90000F931F93DF93CF93CDB7DEB7EC970FB6AC
:102BA000F894DEBF0FBECDBF9AAF89AF7CAF6BAFDD
:102BB0000E94D71283E990E060E040E00E94BE12DC
:102BC00081E060E00E9479121092040287C0809137
:102BD0000402282F30E089AD9AAD8C01020F131F3B
:102BE0000E940613F80180838AE20E94C30F80E0EE
:102BF00090E0AAEFB3E48DAB9EABAFABB8AF6DA9DD
:102C00007EA98FA998AD20E030E04AEF54E40E94FD
:102C10001F02DC01CB0189AB9AABABABBCAB69A9A2
:102C20007AA98BA99CA920E030E040E85FE30E94EC
:102C3000250488232CF481E090E098AB8FA73FC057
:102C400069A97AA98BA99CA920E03FEF4FE757E437
:102C50000E94C50318164CF56DA97EA98FA998ADE1
:102C600020E030E040E251E40E941F02DC01CB0191
:102C7000BC01CD010E944900DC01CB0198AB8FA7BC
:102C80000FC088EC90E09EA78DA78DA59EA501970B
:102C9000F1F79EA78DA78FA598A9019798AB8FA74D
:102CA0008FA598A9009769F714C069A97AA98BA97B
:102CB0009CA90E944900DC01CB0198AB8FA78FA58E
:102CC00098A99CA78BA78BA59CA50197F1F79CA71A
:102CD0008BA7809104028F5F80930402809104028D
:102CE000853008F474CF0E9406138D33E1F780E03D
:102CF00090E0AAEFB3E48FA398A7A9A7BAA76FA102
:102D000078A589A59AA520E030E04AEF54E40E9416
:102D10001F02DC01CB018BA39CA3ADA3BEA36BA1BF
:102D20007CA18DA19EA120E030E040E85FE30E94FD
:102D3000250488232CF481E090E09AA389A33FC066
:102D40006BA17CA18DA19EA120E03FEF4FE757E44E
:102D50000E94C50318164CF56FA178A589A59AA500
:102D600020E030E040E251E40E941F02DC01CB0190
:102D7000BC01CD010E944900DC01CB019AA389A3CB
:102D80000FC088EC90E098A38F8F8F8D98A101974A
:102D9000F1F798A38F8F89A19AA101979AA389A38C
:102DA00089A19AA1009769F714C06BA17CA18DA19C
:102DB0009EA10E944900DC01CB019AA389A389A1AD
:102DC0009AA19E8F8D8F8D8D9E8D0197F1F79E8F8D
:102DD0008D8F83EA90E060E040E00E94BE1284EBB9
:102DE00090E061E040E00E94BE121092040287C0B1
:102DF00080910402282F30E08BAD9CAD8C01020F36
:102E0000131F0E940613F80180838AE20E94C30FF9
:102E100080E090E0AAEFB3E4898F9A8FAB8FBC8FEC
:102E2000698D7A8D8B8D9C8D20E030E04AEF54E4E3
:102E30000E941F02DC01CB018D8B9E8BAF8BB88F64
:102E40006D897E898F89988D20E030E040E85FE3CE
:102E50000E94250488232CF481E090E09C8B8B8BCE
:102E60003FC06D897E898F89988D20E03FEF4FE7C5
:102E700057E40E94C50318164CF5698D7A8D8B8D29
:102E80009C8D20E030E040E251E40E941F02DC0112
:102E9000CB01BC01CD010E944900DC01CB019C8B20
:102EA0008B8B0FC088EC90E09A8B898B89899A89EB
:102EB0000197F1F79A8B898B8B899C8901979C8B61
:102EC0008B8B8B899C89009769F714C06D897E89EB
:102ED0008F89988D0E944900DC01CB019C8B8B8BE4
:102EE0008B899C89988B8F878F8598890197F1F7BB
:102EF000988B8F87809104028F5F8093040280916A
:102F00000402853008F474CF0E9406138D33E1F774
:102F100080E090E0AAEFB3E48B879C87AD87BE8703
:102F20006B857C858D859E8520E030E04AEF54E4FA
:102F30000E941F02DC01CB018F839887A987BA8783
:102F40006F81788589859A8520E030E040E85FE3ED
:102F50000E94250488232CF481E090E09E838D83D9
:102F60003FC06F81788589859A8520E03FEF4FE7E4
:102F700057E40E94C50318164CF56B857C858D853A
:102F80009E8520E030E040E251E40E941F02DC0117
:102F9000CB01BC01CD010E944900DC01CB019E8325
:102FA0008D830FC088EC90E09C838B838B819C8108
:102FB0000197F1F79C838B838D819E8101979E837E
:102FC0008D838D819E81009769F714C06F8178850C
:102FD00089859A850E944900DC01CB019E838D83FF
:102FE0008D819E819A83898389819A810197F1F7E6
:102FF0009A838983EC960FB6F894DEBF0FBECDBFDF
:10300000CF91DF911F910F910895DF93CF9300D05F
:10301000CDB7DEB79A8389831092040211C08091E4
:103020000402282F30E089819A81FC01E20FF31F0E
:1030300080810E94A807809104028F5F8093040220
:1030400080910402853058F30F900F90CF91DF915B
:1030500008950F931F93DF93CF9300D0CDB7DEB7C2
:103060009A8389831092040212C080910402282F4F
:1030700030E089819A818C01020F131F0E94BC07E6
:10308000F8018083809104028F5F80930402809115
:103090000402853050F30F900F90CF91DF911F9174
:1030A0000F9108950F931F93DF93CF93CDB7DEB7A2
:1030B0006C970FB6F894DEBF0FBECDBF0E94D7123B
:1030C00083E990E060E040E00E94BE1281E060E0B1
:1030D0000E9479121092040284C080910402082F89
:1030E00010E00E940613F801EE50FE4F80838AE242
:1030F0000E94C30F80E090E0AAEFB3E4898F9A8F1B
:10310000AB8FBC8F698D7A8D8B8D9C8D20E030E0EC
:103110004AEF54E40E941F02DC01CB018D8B9E8B91
:10312000AF8BB88F6D897E898F89988D20E030E0D4
:1031300040E85FE30E94250488232CF481E090E0BE
:103140009C8B8B8B3FC06D897E898F89988D20E009
:103150003FEF4FE757E40E94C50318164CF5698D01
:103160007A8D8B8D9C8D20E030E040E251E40E940E
:103170001F02DC01CB01BC01CD010E944900DC0132
:10318000CB019C8B8B8B0FC088EC90E09A8B898B4A
:1031900089899A890197F1F79A8B898B8B899C8908
:1031A00001979C8B8B8B8B899C89009769F714C046
:1031B0006D897E898F89988D0E944900DC01CB0141
:1031C0009C8B8B8B8B899C89988B8F878F8598891B
:1031D0000197F1F7988B8F87809104028F5F80931E
:1031E000040280910402853008F477CF0E94061310
:1031F0008D33E1F780E090E0AAEFB3E48B879C8702
:10320000AD87BE876B857C858D859E8520E030E00F
:103210004AEF54E40E941F02DC01CB018F839887A0
:10322000A987BA876F81788589859A8520E030E003
:1032300040E85FE30E94250488232CF481E090E0BD
:103240009E838D833FC06F81788589859A8520E034
:103250003FEF4FE757E40E94C50318164CF56B8506
:103260007C858D859E8520E030E040E251E40E941F
:103270001F02DC01CB01BC01CD010E944900DC0131
:10328000CB019E838D830FC088EC90E09C838B8361
:103290008B819C810197F1F79C838B838D819E812B
:1032A00001979E838D838D819E81009769F714C05D
:1032B0006F81788589859A850E944900DC01CB0160
:1032C0009E838D838D819E819A83898389819A8152
:1032D0000197F1F79A83898382EF91E00E940518A4
:1032E0006C960FB6F894DEBF0FBECDBFCF91DF91C5
:1032F0001F910F910895DF93CF93CDB7DEB78091E3
:10330000F0018F5F8093F0018091F001853049F4E6
:103310000E94D7128FEB90E060E040E00E94BE1266
:1033200018C08091F001863049F40E94D71280EDD8
:1033300090E060E040E00E94BE120BC08091F0017E
:103340008B3039F481E08093F1011092F0010E94FA
:10335000B60DCF91DF910895DF93CF93CDB7DEB750
:103360008091F0018F5F8093F0018091F0018A30AD
:1033700069F40E94B60D8CEC9BE59093010280935A
:1033800000021092F00181E08093F101CF91DF9172
:103390000895629FD001739FF001829FE00DF11D9F
:1033A000649FE00DF11D929FF00D839FF00D749FBF
:1033B000F00D659FF00D9927729FB00DE11DF91F6B
:1033C000639FB00DE11DF91FBD01CF0111240895C8
:1033D000A1E21A2EAA1BBB1BFD010DC0AA1FBB1F19
:1033E000EE1FFF1FA217B307E407F50720F0A21B8B
:1033F000B30BE40BF50B661F771F881F991F1A94F8
:1034000069F760957095809590959B01AC01BD0121
:10341000CF0108952F923F924F925F926F927F92C9
:103420008F929F92AF92BF92CF92DF92EF92FF92D4
:103430000F931F93CF93DF93CDB7DEB7CA1BDB0B80
:103440000FB6F894DEBF0FBECDBF09942A88398825
:1034500048885F846E847D848C849B84AA84B9842C
:10346000C884DF80EE80FD800C811B81AA81B98138
:10347000CE0FD11D0FB6F894DEBF0FBECDBFED014C
:103480000895FB019F01E8944230C4F04532B4F442
:103490004A3029F497FB1EF4909581959F4F642F35
:1034A00077270E94721A805D8A330CF0895D8193C0
:1034B000CB010097A1F716F45DE251931082C90188
:1034C0000C94621ADC01FC01672F71917723E1F7FC
:1034D000329704C07C916D9370836291AE17BF07E1
:1034E000C8F30895AA1BBB1B51E107C0AA1FBB1F4D
:1034F000A617B70710F0A61BB70B881F991F5A9580
:10350000A9F780959095BC01CD010895F894FFCF5F
:103510002B203A206F70656E20446F6F72002D2053
:103520003A206368616E6765207061737300446F51
:103530006F7220756E6C6F636B696E6700455252D7
:103540004F5200706C7A20656E74657220706173E2
:10355000733A00706C7A2072652D656E7465722006
:103560007468650073616D6520706173733A00441F
:103570006F6F7220697320756E6C6F636B6564008A
:10358000446F6F72206973206C6F636B696E6700A4
:10359000000000000000000000010202030303031A
:1035A00004040404040404040505050505050505D3
:1035B00005050505050505050606060606060606B3
:1035C000060606060606060606060606060606069B
:1035D0000606060606060606070707070707070783
:1035E000070707070707070707070707070707076B
:1035F000070707070707070707070707070707075B
:10360000070707070707070707070707070707074A
:103610000707070707070707080808080808080832
:10362000080808080808080808080808080808081A
:10363000080808080808080808080808080808080A
:1036400008080808080808080808080808080808FA
:1036500008080808080808080808080808080808EA
:1036600008080808080808080808080808080808DA
:1036700008080808080808080808080808080808CA
:1036800008080808080808080808080808080808BA
:0E369000080808080808080803000080250044
:00000001FF
